{
  "_format": "hh-sol-artifact-1",
  "contractName": "Raffle",
  "sourceName": "Contracts/Raffle.sol",
  "abi": [
    {
      "inputs": [
        {
          "internalType": "address",
          "name": "vrfCoordinatorV2",
          "type": "address"
        },
        {
          "internalType": "uint256",
          "name": "entranceFee",
          "type": "uint256"
        },
        {
          "internalType": "bytes32",
          "name": "gasLane",
          "type": "bytes32"
        },
        {
          "internalType": "uint64",
          "name": "subscriptionId",
          "type": "uint64"
        },
        {
          "internalType": "uint32",
          "name": "callbackGasLimit",
          "type": "uint32"
        },
        {
          "internalType": "uint256",
          "name": "interval",
          "type": "uint256"
        }
      ],
      "stateMutability": "nonpayable",
      "type": "constructor"
    },
    {
      "inputs": [
        {
          "internalType": "address",
          "name": "have",
          "type": "address"
        },
        {
          "internalType": "address",
          "name": "want",
          "type": "address"
        }
      ],
      "name": "OnlyCoordinatorCanFulfill",
      "type": "error"
    },
    {
      "inputs": [],
      "name": "Raffle__NotEnoughETHEntered",
      "type": "error"
    },
    {
      "inputs": [],
      "name": "Raffle__NotOpen",
      "type": "error"
    },
    {
      "inputs": [],
      "name": "Raffle__TransferFailed",
      "type": "error"
    },
    {
      "inputs": [
        {
          "internalType": "uint256",
          "name": "currentBalance",
          "type": "uint256"
        },
        {
          "internalType": "uint256",
          "name": "numPlayers",
          "type": "uint256"
        },
        {
          "internalType": "uint256",
          "name": "raffleState",
          "type": "uint256"
        }
      ],
      "name": "Raffle__UpKeepNotNeeded",
      "type": "error"
    },
    {
      "anonymous": false,
      "inputs": [
        {
          "indexed": true,
          "internalType": "address",
          "name": "player",
          "type": "address"
        }
      ],
      "name": "RaffleEnter",
      "type": "event"
    },
    {
      "anonymous": false,
      "inputs": [
        {
          "indexed": true,
          "internalType": "uint256",
          "name": "requestId",
          "type": "uint256"
        }
      ],
      "name": "RequestedRaffleWinner",
      "type": "event"
    },
    {
      "anonymous": false,
      "inputs": [
        {
          "indexed": true,
          "internalType": "address",
          "name": "winner",
          "type": "address"
        }
      ],
      "name": "WinnerPicked",
      "type": "event"
    },
    {
      "inputs": [
        {
          "internalType": "bytes",
          "name": "",
          "type": "bytes"
        }
      ],
      "name": "checkUpkeep",
      "outputs": [
        {
          "internalType": "bool",
          "name": "upKeepNeeded",
          "type": "bool"
        },
        {
          "internalType": "bytes",
          "name": "",
          "type": "bytes"
        }
      ],
      "stateMutability": "nonpayable",
      "type": "function"
    },
    {
      "inputs": [],
      "name": "enterRaffle",
      "outputs": [],
      "stateMutability": "payable",
      "type": "function"
    },
    {
      "inputs": [],
      "name": "getEntranceFee",
      "outputs": [
        {
          "internalType": "uint256",
          "name": "",
          "type": "uint256"
        }
      ],
      "stateMutability": "view",
      "type": "function"
    },
    {
      "inputs": [],
      "name": "getNumWords",
      "outputs": [
        {
          "internalType": "uint256",
          "name": "",
          "type": "uint256"
        }
      ],
      "stateMutability": "view",
      "type": "function"
    },
    {
      "inputs": [
        {
          "internalType": "uint256",
          "name": "index",
          "type": "uint256"
        }
      ],
      "name": "getPlayer",
      "outputs": [
        {
          "internalType": "address",
          "name": "",
          "type": "address"
        }
      ],
      "stateMutability": "view",
      "type": "function"
    },
    {
      "inputs": [],
      "name": "getRaffleState",
      "outputs": [
        {
          "internalType": "enum Raffle.RaffleState",
          "name": "",
          "type": "uint8"
        }
      ],
      "stateMutability": "view",
      "type": "function"
    },
    {
      "inputs": [],
      "name": "getRecentWinner",
      "outputs": [
        {
          "internalType": "address",
          "name": "",
          "type": "address"
        }
      ],
      "stateMutability": "view",
      "type": "function"
    },
    {
      "inputs": [
        {
          "internalType": "bytes",
          "name": "",
          "type": "bytes"
        }
      ],
      "name": "performUpkeep",
      "outputs": [],
      "stateMutability": "nonpayable",
      "type": "function"
    },
    {
      "inputs": [
        {
          "internalType": "uint256",
          "name": "requestId",
          "type": "uint256"
        },
        {
          "internalType": "uint256[]",
          "name": "randomWords",
          "type": "uint256[]"
        }
      ],
      "name": "rawFulfillRandomWords",
      "outputs": [],
      "stateMutability": "nonpayable",
      "type": "function"
    }
  ],
  "bytecode": "0x6101606040523480156200001257600080fd5b50604051620016f8380380620016f88339818101604052810190620000389190620002a0565b858073ffffffffffffffffffffffffffffffffffffffff1660808173ffffffffffffffffffffffffffffffffffffffff1660601b81525050508460a081815250508573ffffffffffffffffffffffffffffffffffffffff1660c08173ffffffffffffffffffffffffffffffffffffffff1660601b815250508360e081815250508267ffffffffffffffff166101008167ffffffffffffffff1660c01b815250508163ffffffff166101208163ffffffff1660e01b815250506000600160146101000a81548160ff021916908360018111156200011957620001186200033c565b5b0217905550426002819055508061014081815250505050505050506200036b565b600080fd5b600073ffffffffffffffffffffffffffffffffffffffff82169050919050565b60006200016c826200013f565b9050919050565b6200017e816200015f565b81146200018a57600080fd5b50565b6000815190506200019e8162000173565b92915050565b6000819050919050565b620001b981620001a4565b8114620001c557600080fd5b50565b600081519050620001d981620001ae565b92915050565b6000819050919050565b620001f481620001df565b81146200020057600080fd5b50565b6000815190506200021481620001e9565b92915050565b600067ffffffffffffffff82169050919050565b62000239816200021a565b81146200024557600080fd5b50565b60008151905062000259816200022e565b92915050565b600063ffffffff82169050919050565b6200027a816200025f565b81146200028657600080fd5b50565b6000815190506200029a816200026f565b92915050565b60008060008060008060c08789031215620002c057620002bf6200013a565b5b6000620002d089828a016200018d565b9650506020620002e389828a01620001c8565b9550506040620002f689828a0162000203565b94505060606200030989828a0162000248565b93505060806200031c89828a0162000289565b92505060a06200032f89828a01620001c8565b9150509295509295509295565b7f4e487b7100000000000000000000000000000000000000000000000000000000600052602160045260246000fd5b60805160601c60a05160c05160601c60e0516101005160c01c6101205160e01c61014051611318620003e060003960006106f7015260006105b3015260006105900152600061056f01526000610533015260008181610212015261030f01526000818161024f01526102a301526113186000f3fe6080604052600436106100865760003560e01c80634585e33b116100595780634585e33b14610114578063473f1ddc1461013d57806353a2c19a146101685780636e04ff0d14610193578063e55ae4e8146101d157610086565b806309bc33a71461008b578063115cbaf5146100b65780631fe543e3146100e15780632cfcc5391461010a575b600080fd5b34801561009757600080fd5b506100a061020e565b6040516100ad9190610a99565b60405180910390f35b3480156100c257600080fd5b506100cb610236565b6040516100d89190610b2b565b60405180910390f35b3480156100ed57600080fd5b5061010860048036038101906101039190610cdf565b61024d565b005b61011261030d565b005b34801561012057600080fd5b5061013b60048036038101906101369190610d96565b61047c565b005b34801561014957600080fd5b5061015261067b565b60405161015f9190610e24565b60405180910390f35b34801561017457600080fd5b5061017d6106a5565b60405161018a9190610a99565b60405180910390f35b34801561019f57600080fd5b506101ba60048036038101906101b59190610ef4565b6106b4565b6040516101c8929190610fe0565b60405180910390f35b3480156101dd57600080fd5b506101f860048036038101906101f39190611010565b610761565b6040516102059190610e24565b60405180910390f35b60007f0000000000000000000000000000000000000000000000000000000000000000905090565b6000600160149054906101000a900460ff16905090565b7f000000000000000000000000000000000000000000000000000000000000000073ffffffffffffffffffffffffffffffffffffffff163373ffffffffffffffffffffffffffffffffffffffff16146102ff57337f00000000000000000000000000000000000000000000000000000000000000006040517f1cf993f40000000000000000000000000000000000000000000000000000000081526004016102f692919061103d565b60405180910390fd5b61030982826107a8565b5050565b7f0000000000000000000000000000000000000000000000000000000000000000341015610367576040517fbd4e069500000000000000000000000000000000000000000000000000000000815260040160405180910390fd5b6000600181111561037b5761037a610ab4565b5b600160149054906101000a900460ff16600181111561039d5761039c610ab4565b5b146103d4576040517f1425571c00000000000000000000000000000000000000000000000000000000815260040160405180910390fd5b6000339080600181540180825580915050600190039060005260206000200160009091909190916101000a81548173ffffffffffffffffffffffffffffffffffffffff021916908373ffffffffffffffffffffffffffffffffffffffff1602179055503373ffffffffffffffffffffffffffffffffffffffff167f0805e1d667bddb8a95f0f09880cf94f403fb596ce79928d9f29b74203ba284d460405160405180910390a2565b6000610496604051806020016040528060008152506106b4565b509050806105055747600080549050600160149054906101000a900460ff1660018111156104c7576104c6610ab4565b5b6040517f3a8d60860000000000000000000000000000000000000000000000000000000081526004016104fc93929190611066565b60405180910390fd5b60018060146101000a81548160ff0219169083600181111561052a57610529610ab4565b5b021790555060007f000000000000000000000000000000000000000000000000000000000000000073ffffffffffffffffffffffffffffffffffffffff16635d3b1d307f00000000000000000000000000000000000000000000000000000000000000007f000000000000000000000000000000000000000000000000000000000000000060037f000000000000000000000000000000000000000000000000000000000000000060016040518663ffffffff1660e01b81526004016105f4959493929190611115565b602060405180830381600087803b15801561060e57600080fd5b505af1158015610622573d6000803e3d6000fd5b505050506040513d601f19601f82011682018060405250810190610646919061117d565b9050807fcd6e45c8998311cab7e9d4385596cac867e20a0587194b954fa3a731c93ce78b60405160405180910390a250505050565b6000600160009054906101000a900473ffffffffffffffffffffffffffffffffffffffff16905090565b6000600163ffffffff16905090565b600060606000600160149054906101000a900460ff1660018111156106dc576106db610ab4565b5b600060018111156106f0576106ef610ab4565b5b14905060007f00000000000000000000000000000000000000000000000000000000000000006002544261072491906111d9565b119050600080600080549050119050600080471190508380156107445750825b801561074d5750805b80156107565750815b955050505050915091565b60008082815481106107765761077561120d565b5b9060005260206000200160009054906101000a900473ffffffffffffffffffffffffffffffffffffffff169050919050565b60008080549050826000815181106107c3576107c261120d565b5b60200260200101516107d5919061126b565b905060008082815481106107ec576107eb61120d565b5b9060005260206000200160009054906101000a900473ffffffffffffffffffffffffffffffffffffffff16905080600160006101000a81548173ffffffffffffffffffffffffffffffffffffffff021916908373ffffffffffffffffffffffffffffffffffffffff1602179055506000600160146101000a81548160ff021916908360018111156108805761087f610ab4565b5b0217905550600067ffffffffffffffff8111156108a05761089f610b9c565b5b6040519080825280602002602001820160405280156108ce5781602001602082028036833780820191505090505b50600090805190602001906108e49291906109d9565b504260028190555060008173ffffffffffffffffffffffffffffffffffffffff1647604051610912906112cd565b60006040518083038185875af1925050503d806000811461094f576040519150601f19603f3d011682016040523d82523d6000602084013e610954565b606091505b505090508061098f576040517fa1d04b3900000000000000000000000000000000000000000000000000000000815260040160405180910390fd5b8173ffffffffffffffffffffffffffffffffffffffff167f5b690ec4a06fe979403046eaeea5b3ce38524683c3001f662c8b5a829632f7df60405160405180910390a25050505050565b828054828255906000526020600020908101928215610a52579160200282015b82811115610a515782518260006101000a81548173ffffffffffffffffffffffffffffffffffffffff021916908373ffffffffffffffffffffffffffffffffffffffff160217905550916020019190600101906109f9565b5b509050610a5f9190610a63565b5090565b5b80821115610a7c576000816000905550600101610a64565b5090565b6000819050919050565b610a9381610a80565b82525050565b6000602082019050610aae6000830184610a8a565b92915050565b7f4e487b7100000000000000000000000000000000000000000000000000000000600052602160045260246000fd5b60028110610af457610af3610ab4565b5b50565b6000819050610b0582610ae3565b919050565b6000610b1582610af7565b9050919050565b610b2581610b0a565b82525050565b6000602082019050610b406000830184610b1c565b92915050565b6000604051905090565b600080fd5b600080fd5b610b6381610a80565b8114610b6e57600080fd5b50565b600081359050610b8081610b5a565b92915050565b600080fd5b6000601f19601f8301169050919050565b7f4e487b7100000000000000000000000000000000000000000000000000000000600052604160045260246000fd5b610bd482610b8b565b810181811067ffffffffffffffff82111715610bf357610bf2610b9c565b5b80604052505050565b6000610c06610b46565b9050610c128282610bcb565b919050565b600067ffffffffffffffff821115610c3257610c31610b9c565b5b602082029050602081019050919050565b600080fd5b6000610c5b610c5684610c17565b610bfc565b90508083825260208201905060208402830185811115610c7e57610c7d610c43565b5b835b81811015610ca75780610c938882610b71565b845260208401935050602081019050610c80565b5050509392505050565b600082601f830112610cc657610cc5610b86565b5b8135610cd6848260208601610c48565b91505092915050565b60008060408385031215610cf657610cf5610b50565b5b6000610d0485828601610b71565b925050602083013567ffffffffffffffff811115610d2557610d24610b55565b5b610d3185828601610cb1565b9150509250929050565b600080fd5b60008083601f840112610d5657610d55610b86565b5b8235905067ffffffffffffffff811115610d7357610d72610d3b565b5b602083019150836001820283011115610d8f57610d8e610c43565b5b9250929050565b60008060208385031215610dad57610dac610b50565b5b600083013567ffffffffffffffff811115610dcb57610dca610b55565b5b610dd785828601610d40565b92509250509250929050565b600073ffffffffffffffffffffffffffffffffffffffff82169050919050565b6000610e0e82610de3565b9050919050565b610e1e81610e03565b82525050565b6000602082019050610e396000830184610e15565b92915050565b600080fd5b600067ffffffffffffffff821115610e5f57610e5e610b9c565b5b610e6882610b8b565b9050602081019050919050565b82818337600083830152505050565b6000610e97610e9284610e44565b610bfc565b905082815260208101848484011115610eb357610eb2610e3f565b5b610ebe848285610e75565b509392505050565b600082601f830112610edb57610eda610b86565b5b8135610eeb848260208601610e84565b91505092915050565b600060208284031215610f0a57610f09610b50565b5b600082013567ffffffffffffffff811115610f2857610f27610b55565b5b610f3484828501610ec6565b91505092915050565b60008115159050919050565b610f5281610f3d565b82525050565b600081519050919050565b600082825260208201905092915050565b60005b83811015610f92578082015181840152602081019050610f77565b83811115610fa1576000848401525b50505050565b6000610fb282610f58565b610fbc8185610f63565b9350610fcc818560208601610f74565b610fd581610b8b565b840191505092915050565b6000604082019050610ff56000830185610f49565b81810360208301526110078184610fa7565b90509392505050565b60006020828403121561102657611025610b50565b5b600061103484828501610b71565b91505092915050565b60006040820190506110526000830185610e15565b61105f6020830184610e15565b9392505050565b600060608201905061107b6000830186610a8a565b6110886020830185610a8a565b6110956040830184610a8a565b949350505050565b6000819050919050565b6110b08161109d565b82525050565b600067ffffffffffffffff82169050919050565b6110d3816110b6565b82525050565b600061ffff82169050919050565b6110f0816110d9565b82525050565b600063ffffffff82169050919050565b61110f816110f6565b82525050565b600060a08201905061112a60008301886110a7565b61113760208301876110ca565b61114460408301866110e7565b6111516060830185611106565b61115e6080830184611106565b9695505050505050565b60008151905061117781610b5a565b92915050565b60006020828403121561119357611192610b50565b5b60006111a184828501611168565b91505092915050565b7f4e487b7100000000000000000000000000000000000000000000000000000000600052601160045260246000fd5b60006111e482610a80565b91506111ef83610a80565b925082821015611202576112016111aa565b5b828203905092915050565b7f4e487b7100000000000000000000000000000000000000000000000000000000600052603260045260246000fd5b7f4e487b7100000000000000000000000000000000000000000000000000000000600052601260045260246000fd5b600061127682610a80565b915061128183610a80565b9250826112915761129061123c565b5b828206905092915050565b600081905092915050565b50565b60006112b760008361129c565b91506112c2826112a7565b600082019050919050565b60006112d8826112aa565b915081905091905056fea2646970667358221220117e0a7ae5528d4473138e705e6a991fe666cafa7dbb0a6361564949ad320bd564736f6c63430008080033",
  "linkReferences": {},
  "deployedLinkReferences": {}
}